:100000000C9434000C9451000C9451000C94510049
:100010000C9451000C9451000C9451000C9451001C
:100020000C9451000C9451000C9451000C9451000C
:100030000C9451000C9451000C9451000C945100FC
:100040000C9451000C9451000C9451000C945100EC
:100050000C9451000C9451000C9451000C945100DC
:100060000C9451000C94510011241FBECFEFD8E026
:10007000DEBFCDBF11E0A0E0B1E0EAEDF4E002C0E8
:1000800005900D92A238B107D9F711E0A2E8B1E0CE
:1000900001C01D92A438B107E1F70E9445020C94FB
:1000A0006B020C940000529A5098589A5198599AA1
:1000B00008955A9A08955A980895529A5098589ABD
:1000C0005198599A489902C0499B09C010928301DE
:1000D000109282018091820190918301089581E0C4
:1000E00090E09093830180938201809182019091AE
:1000F0008301089580E480937C0087E880937A00F0
:10010000089590917C00987F90937C0090917C0062
:100110008770892B80937C0080917A008064809323
:100120007A0080917A0084FFFCCF80917A00806110
:1001300080937A002091780030917900C901089568
:1001400080E480937C0087E880937A0080917C0033
:10015000887F80937C0080917C0080937C008091DC
:100160007A00806480937A0080917A0084FFFCCFCB
:1001700080917A00806180937A002091780030919C
:100180007900C9010895E0E8F0E080818368808308
:10019000E1E8F0E080818B608083219A08959C01E2
:1001A00080918000836880938000809181008B60C3
:1001B00080938100219A293C3105A0F48DEC90E0D8
:1001C000909389008093880020E030E040E951E07E
:1001D000CA010197F1F72F5F3F4F87E0203D3807B5
:1001E000B9F70895C901825D904083529140A0F40F
:1001F0008AE991E0909389008093880020E030E0C4
:1002000040E951E0CA010197F1F72F5F3F4F87E0C6
:10021000203D3807B9F70895C9018E5F91408F3BA3
:100220009105C8F0265C32402B53314040F58DECEF
:1002300093E0909389008093880020E030E040E9CB
:1002400051E0CA010197F1F72F5F3F4F87E0203D52
:100250003807B9F708958DEC92E090938900809368
:10026000880020E030E040E951E0CA010197F1F751
:100270002F5F3F4F87E0203D3807B9F70895109270
:1002800089001092880020E030E040E951E0CA0186
:100290000197F1F72F5F3F4F87E0203D3807B9F70F
:1002A00008951092C50087E68093C40086E4809389
:1002B000C20088ED8093C10008958091C00087FF3F
:1002C000FCCF8091C60090E00895DF93CF93CDB727
:1002D000DEB7E3970FB6F894DEBF0FBECDBF9C012B
:1002E000893C910568F5DE015A96E0E0F1E08AE18B
:1002F00001900D928150E1F79A8D992359F0FE01FA
:100300007B968091C00085FFFCCF9093C6009191B1
:100310009923B9F720E030E040E951E0CA010197A4
:10032000F1F72F5F3F4F8EE420323807B9F7E3969D
:100330000FB6F894DEBF0FBECDBFCF91DF91089509
:10034000825D90408352914028F5DE015A96EAE1A1
:10035000F1E08AE101900D928150E1F79A8D9923A5
:1003600059F0FE017B968091C00085FFFCCF9093F1
:10037000C60091919923B9F720E030E040E951E0BF
:10038000CA010197F1F72F5F3F4F8EE42032380703
:10039000B9F7CDCFC9018E5F91408F3B910558F1E0
:1003A000265C32402B53314008F04AC0DE015A9699
:1003B000E4E3F1E08AE101900D928150E1F79A8D3A
:1003C000992359F0FE017B968091C00085FFFCCFF8
:1003D0009093C60091919923B9F720E030E040E96D
:1003E00051E0CA010197F1F72F5F3F4F8EE42032B1
:1003F0003807B9F79CCFDE015A96EEE4F1E08AE1C6
:1004000001900D928150E1F79A8D992359F0FE01E8
:100410007B968091C00085FFFCCF9093C6009191A0
:100420009923B9F720E030E040E951E0CA01019793
:10043000F1F72F5F3F4F8EE420323807B9F777CFBF
:10044000DE011196E8E6F1E089E101900D9281501C
:10045000E1F79981992359F0FE0132968091C0000D
:1004600085FFFCCF9093C60091919923B9F720E0C6
:1004700030E040E951E0CA010197F1F72F5F3F4FAB
:100480008EE420323807B9F752CF0F931F93CF93E2
:10049000DF93C0E9D1E00E945D00019789F00E94DE
:1004A0005B0020E030E0CE010197F1F72F5F3F4F76
:1004B00087E0203D3807B9F70E945D00019779F782
:1004C0000E9459000E94A0008C010E94CF00C80128
:0A04D0000E946501E0CFF894FFCF11
:1004DA0054656D70657261747572653A20323020A8
:1004EA0064656772656520430A0054656D706572BC
:1004FA0061747572653A2032352064656772656584
:10050A0020430A0054656D70657261747572653AAC
:10051A002033332064656772656520430A00546599
:10052A006D70657261747572653A2032392064653E
:10053A006772656520430A0054656D70657261745F
:10054A007572653A20302064656772656520430AD2
:02055A0000009F
:00000001FF
